:020000041000EA
:1000000000B5324B212058609868022188439860DF
:10001000D860186158612E4B002199600221596106
:100020000121F02299502B49196001219960352056
:1000300000F044F80222904214D00621196600F024
:1000400034F8196E01211966002018661A6600F04E
:100050002CF8196E196E196E052000F02FF8012189
:100060000842F9D1002199601B49196000215960AB
:100070001A491B48016001219960EB211966A021F2
:10008000196600F012F800219960164914480160C1
:100090000121996001BC002800D000471248134993
:1000A000086003C880F30888084703B5996A0420EC
:1000B0000142FBD001200142F8D103BD02B5186610
:1000C0001866FFF7F2FF186E186E02BD00000240BE
:1000D000000000180000070000035F00212200005C
:1000E000F4000018222000A00001001008ED00E03C
:1000F00000000000000000000000000074B24E7A12
:1001000000200420F7010010C3010010C5010010F9
:10011000C1010010C1010010C1010010C101001097
:10012000C1010010C1010010C1010010C701001081
:10013000C1010010C1010010C9010010CB01001065
:10014000CD010010CD010010CD010010CD01001037
:10015000CD010010CD010010CD010010CD01001027
:10016000CD010010CD010010CD010010CD01001017
:10017000CD010010CD010010CD010010CD01001007
:10018000CD010010CD010010CD010010CD010010F7
:10019000CD010010CD010010CD010010CD010010E7
:1001A000CD010010CD010010CD010010CD010010D7
:1001B000CD010010CD010010CD010010CD010010C7
:1001C00000BE00BE00BE00BE00BE00BE00F04BF888
:1001D000103800BEF2EB887140FD001068FD001081
:1001E0003402001090A31AE700202149086006C8D5
:1001F00081F3088810471F48006800282FD10DA4FC
:100200000ECC002902D000F012F8F9E71A491B4A77
:10021000002000E001C19142FCD1194988471949E9
:1002200088471949884700BEFDE701C901C29A42C3
:10023000FBD3704768FD0010C0000020AC1D0020FB
:10024000541A01100000042000000420541A011068
:1002500000100420001004200000000070470B482C
:1002600003F0A8FE0047EFF30580C0B2704700001E
:1002700008ED00E0000000D0B01D0020C02D0020DF
:1002800061200010790900108921001057560000E4
:1002900006005250ABB3605360F10010060052509C
:1002A000861C030270F10010060052505422A29DD9
:1002B00078F1001005005250DE65F468541A011000
:1002C000F8B5C0460448054B10B5834203D0044B33
:1002D000002B00D0984710BDAC1D0020AC1D0020A5
:1002E0000000000006480749091A8B10C90FC918F9
:1002F00010B5491003D0044B002B00D0984710BD17
:10030000AC1D0020AC1D00200000000010B5074C03
:100310002378002B09D1FFF7D5FF054B002B02D026
:10032000044800E000BF0123237010BDB81E002068
:1003300000000000B0EC0010054B10B5002B03D0FE
:100340000449054800E000BFFFF7CCFF10BDC046E0
:1003500000000000BC1E0020B0EC00107047C0463A
:10036000C06810B5002802D00368DB69984710BD4B
:100370000020704710B5040010210BF03BFC20005A
:1003800010BDC04610B510210BF034FC10BDC046A6
:1003900010B50400024B03600BF04AFE200010BDB4
:1003A00060EE001010B50400044B03600BF040FE3B
:1003B000200004210BF01EFC200010BD60EE001098
:1003C00010B50400024B036009F036FC200010BD9C
:1003D00038EE001010B50400044B036009F02CFC4B
:1003E000200020210BF006FC200010BD38EE00108C
:1003F000F0B5DE46454657464E46E0B583B006F0BA
:10040000B1FB744B9846FE239B050193019806F0BF
:1004100069F8002604000D000027380004F014F9E4
:1004200002000B002000290004F0D2FD00226A4BDC
:1004300004F06EF804F024F901373618BFB2B6B2F2
:100440000A2FEAD180235B009E4265D9414601987C
:1004500005F0C3FF61490190404605F0C4FF8046A6
:10046000404606F03FF85E4A5E4B04F0C3F8414652
:10047000002800D0A8E0019805F0B2FF8721C90547
:10048000019005F0FBFF0028C0D1574806F014FA90
:10049000802201215200554806F0ACF8192000F0E6
:1004A000D7FCD02380221B0692045A621F211A20F7
:1004B00000F08AFC002200211A2000F09DFC00219F
:1004C0001A2000F0B1FC09F095F8E021484AC90172
:1004D0001368FA200B40474980000B60464B1968AF
:1004E000464B4B4046490B4046490B60FA239B0262
:1004F000136101F087F9012009F098F8424BC0021E
:100500001840424B1843424B186003B03CBC904625
:100510009946A246AB46F0BD9E42A1D1002101986A
:1005200005F0A4FF0028B0D13A4B002799463A4B7A
:100530009A4600239846394B9B464B4638001F800D
:1005400005F0A2FF364905F062FFEC21890505F0B0
:100550005EFF05F0C7FF02000B005846414606F05B
:10056000F5FA404604F074F804000D00019805F017
:10057000B9FF22002B0004F02BFD0022164B03F0E4
:10058000C7FF04F07DF83F18BFB2380005F07CFFCC
:10059000234905F03CFFEC21890505F038FF05F003
:1005A000A1FF02000B001F4806F0D0FA52467B1E46
:1005B000138001239C460133E0449C464346E144BA
:1005C000E2440A2BB9D163E7019805F006FF0190D8
:1005D000A4E7C046CDCCCC3D0000E03F0000204168
:1005E0008DEDB5A0F7C6B03ED0EC001084290020F8
:1005F00000C0044000D0044008C004400B000001CB
:100600000F00000F08D00440FF7F00FF2100120000
:10061000C4240020882A00206C250020B0EC0010A3
:1006200000803B47C8EC001070B504680500002C42
:1006300011D06368013B6360002B0CD1236820005C
:100640009B689847A368013BA360002B03D12368F4
:100650002000DB689847280070BDC046F0B5D6463C
:100660004F4646461D00C0B507001C2089460CF0C9
:100670000DF92B6806001B684C4698460361002361
:10068000436183613B1D9A464B453BD023699845A6
:1006900016D2FD684D4508D048460CF045FA03696E
:1006A00098454ED9C368002B6CD0012053462200D8
:1006B00031000CF03DFA7B69300001337B611CE0B6
:1006C000984516D93B694B4536D048460CF016FA8A
:1006D0000369984558D2E368002B2DD0040001200F
:1006E000E4E7230000293CD1904502D90024002BE7
:1006F0001ED130000BF07AFA20001CBC90469946BF
:10070000A246F0BD7B69002B03D03C692369984564
:100710000FD8BC68002C05D147E00121A368002B4D
:10072000DFD01C0022699045F7D30021E368F6E78B
:100730001C0001205445B9D02369984580414042AE
:10074000B4E7BC68002C05D131E00121A368002B7F
:1007500011D01C0022699045F7D30021E368F6E729
:100760005446FB68A3421ED020000CF0DDF92300A4
:1007700002690400B8E723000029B5D02B00A54288
:10078000F2D1B3E70400D4E7BC68002C05D1E7E759
:100790000121A368002BA4D01C0022699045F7D347
:1007A0000021E368F6E72300A0E74C46D9E754466A
:1007B000E4E7C046F0B5D6464F4646461D00C0B5F4
:1007C00007002C2089460CF061F82B6802001B689A
:1007D00018329846036100230376C36183623B1D90
:1007E00006004C469A46026242624B453BD0236962
:1007F000434516D9FD684D4508D048460CF094F99C
:10080000036943454ED2C368002B6CD00120534688
:10081000220031000CF08CF97B69300001337B61E0
:100820001CE0434516D23B694B4536D048460CF098
:1008300065F90369434558D9E368002B2DD00400BE
:100840000120E4E7230000293CD1424502D20024E4
:10085000002B1ED130000BF0C9F920001CBC9046C3
:100860009946A246F0BD7B69002B03D03C69236901
:1008700043450FD3BC68002C05D147E00121A36894
:10088000002BDFD01C0022699045F7D30021E368DC
:10089000F6E71C000120A245B9D0236998458041A4
:1008A0004042B4E7BC68002C05D131E00121A368C7
:1008B000002B11D01C0022699045F7D30021E3687A
:1008C000F6E75446FB68A3421ED020000CF02CF93A
:1008D000230002690400B8E723000029B5D02B00EB
:1008E000A542F2D1B3E70400D4E7BC68002C05D1DF
:1008F000E7E70121A368002BA4D01C0022699045E2
:10090000F7D30021E368F6E72300A0E74C46D9E7D8
:100910005446E4E770B583680C0084B0051D002BD5
:100920001DD00A68290003E019009B68002B05D040
:100930001E699642F8D2DB68002BF9D18D4202D0B5
:100940000B69934207D902AB00930A4A03AB0394A5
:10095000FFF730FF01001431080004B070BD02AB96
:1009600029000093034A03AB0394FFF723FF010020
:10097000F1E7C04688EE0010F0B5DE464E46574619
:1009800045468020E0B5D84C0023A5440022002134
:10099000800009F0BDFB0990FFF72AFD0023D34E2C
:1009A00094A930000D939493FFF7B4FF040083687B
:1009B0000434002B12D022000D9903E01A009B682A
:1009C000002B05D018698842F8D2DB68002BF9D1DA
:1009D000944203D01369994200D37BE1300094A97B
:1009E000FFF798FF0430844200D0BBE120200BF0D9
:1009F0004DFF0023049303330393023B029301331F
:100A00000193083300930D9A0023B949050009F0BA
:100A1000A7F90023FFAC10206565A36554340BF0E3
:100A200035FF012343608360B24BC56003606060A3
:100A300094A93000FFF76EFF8368021D002B00D1E0
:100A40004AE115000D9903E01D009B68002B05D0BD
:100A50001E698E42F8D2DB68002BF9D1AA4203D07E
:100A60002B69994200D32EE104A984228C461201FD
:100A70000DAB6244136084231B0163441A00089386
:100A800014AB0093290013009B4AFFF7E7FD050014
:100A9000FFAB54331B68AE696B61FFAB9F6D58337E
:100AA000B74219D0002F02D07B6801337B60002E43
:100AB00011D07368013B7360002B0CD13368300098
:100AC0009B689847B368013BB360002B03D1336840
:100AD0003000DB689847AF6104AA84209446000187
:100AE000FFAA636860445432116852680160426032
:100AF000002B02D05A6801325A60089911A808F0F8
:100B000079FF04AB9C467D486044FFF78DFDFFA84C
:100B10005830FFF789FD402111A808F091FFFF230D
:100B2000FF2111A80B9309F05DF811A809F06AF8EC
:100B3000734B744E9B4694AD8022734952000B68F0
:100B40001342FCD08B68134206D180216E4B4900C2
:100B5000DA689A680A42FBD008216C4B6C4819602D
:100B60006C4B1B6807939A01A023DB05D318186010
:100B700014A8586080208000986058460068D860AB
:100B80008023D0209B0400064361634B1960634BB4
:100B900080219C464904624413680B42FCD18023A7
:100BA000D0229B0412069361002214AB1978013302
:100BB00052189D42FAD1520AD2B2130211041343C1
:100BC0000B43120613439C466246554BE246994638
:100BD000544B94A91A40904614AF08CF52461800BF
:100BE000504084464846624690434A461343424634
:100BF0009B1A434008C18C42EFD1089F09983A00E4
:100C000094A909F06BFB3A0004ABA4279C46200092
:100C10003F01674400230121D35651565B434943AA
:100C200002325B1808C09742F4D13F4B99463F4BC4
:100C30009A460EAB0793002398464B4652461B88B4
:100C400011888B4233DC00209A00F756A2580133FA
:100C50007A4380188B42F7DD354BFF22984204D847
:100C60003449000203F0FCF9C2B2079B18789042A5
:100C70001FD2130211041343079F0B4310063A704F
:100C80001A004146024311A80C9208F0DFFE01232E
:100C90009C460133E0449C4643460137E144E2442C
:100CA00007970A2BC9D111A808F0ACFF44E7079BAE
:100CB000187803F0CDFC204A204B03F050FC03F0E1
:100CC00003FDC2B2D5E7842304AA94461B01634402
:100CD0000893DDE6140081E61500C5E62021280012
:100CE0000AF088FF0BF02CF8ACF3FFFF281F002060
:100CF0000000205074EE001088EE00104408000040
:100D0000C42400208429002000C0044000F00440D6
:100D10000CC004405C25002000E00440100000509E
:100D2000808080807F7F7F7F882A00206C25002044
:100D3000DB050000DC050000CDCCCCCCCCCCEC3FFE
:100D400004AB9C4617486044FFF76EFCFFA8583080
:100D5000FFF76AFC0AF0F4FFF8E711A808F056FE66
:100D60000AF0EEFF04200AF0ADFF040004200BF0AF
:100D70008DFD0D4B20600360002220000B490BF01D
:100D800033FD0BF0D3F82800FFF724FB0BF046FDF2
:100D900020000AF0ADFF0AF0D3FF0BF001F90AF0D2
:100DA000CFFFC0464408000060EE0010CCED0010FC
:100DB0000022044B191D1A719A60D96019615A6199
:100DC0007047C046281F0020094A830094464022ED
:100DD000634410B51C68C0006240C02414408022E7
:100DE000520113431C60034B9C466044416010BD9C
:100DF00004C00140004001400A4B80009C4604238F
:100E00006044002901D00C230821002A00D10B00E6
:100E1000026853400C221A4080235B011843026091
:100E20007047C04604C00140084B80009C466044A7
:100E3000002905D080239B0118434023036070479D
:100E4000C0239B01184340230360F8E704C001401E
:100E50000123D0228340120693629361094A8300E2
:100E60009446402263441968C0004A40C0211140A2
:100E70008022520113431960034B9C4605236044B2
:100E80004360704704C0014000400140EFF3108010
:100E900072B6034A1368002BFCD0BFF35F8F704714
:100EA0002C0100D0BFF35F8F0022024B1A6080F349
:100EB000108870472C0100D0F8B5EFF3108772B698
:100EC0000E4E3368002BFCD0BFF35F8FCB08C418E5
:100ED0000725A446C45C01230D40AB401800204008
:100EE000234208D1624623431370BFF35F8F306003
:100EF00087F31088F8BD100001F048F92C0100D0EC
:100F0000F8B5CE4647468C4680B5EFF3108872B6EA
:100F1000214D2C68002CFCD0BFF35F8F9A422CD857
:100F2000D4080721055D0619012411408C402C428C
:100F30001FD007218946063909E0D408055D061946
:100F40004C460F001440A7403C002F4211D0013204
:100F50009342F2D201204042BFF35F8F00220E4B3A
:100F60001A6088F3108800280FDB0CBC9046994665
:100F7000F8BD2C4310003470EEE7BFF35F8F002301
:100F80002B6088F31088012040426346002BECD090
:100F9000089801F0FBF8C0462C0100D0024B1868FD
:100FA0008007C00F7047C04600C006400021044BB8
:100FB000044ABFF35F8F02C39342FAD17047C04621
:100FC000000100D0800100D0044A1078431CDBB23D
:100FD000172B00D9102313707047C046201400202F
:100FE00000B5054B83B00100009318221F2303486E
:100FF000FFF786FF03B000BD8CEE0010C824002070
:10100000F8B5040006200D0001F03CFA002845D098
:101010002B4B2C49E3185A4253418022D203944669
:101020005B421340284A63441360284A1360180047
:101030008A689043FBD1224B8021E3185A425341E6
:10104000234A5B0049000620995201F01BFA29004F
:10105000C00003F005F8C30921D140270122260072
:1010600080256262A36200232C36AD0135432B60DC
:10107000062001F007FA3900800002F0F1FF60233A
:10108000E26A53406E221A4080235B0133431A60A8
:10109000104B236310232B600D3BA364F8BD0E4A55
:1010A000934203D900230D4F0D4AD8E77F22104009
:1010B000013040089F011A003F180300CFE7C046E7
:1010C0000080FCBF00C0004000E0004000F0004095
:1010D000F82A002001030000FEFF0000C0FF3F00CF
:1010E000FFFF000083680B4810B5844661446244EA
:1010F000090112019A18591854684B6801209C4242
:1011000001D802D00020C0B210BD12680B689A420C
:10111000F9D8F7E7FFFFFF0F0A4B1968EFF31080CC
:1011200072B60A68002AFCD0BFF35F8F1B68BFF35A
:101130005F8F00221A6080F3108840BF00200021DA
:101140007047C046BC2A0020F8B557464E46454673
:10115000DE46E0B5434D81468A466A68EFF3108863
:1011600072B61368002BFCD0BFF35F8F2E68B47B80
:10117000002C3ED0670033683F19033FDA195378DB
:10118000B373002B00D1F37300239370537013706B
:10119000A968354A8C464946A2181201624411607A
:1011A000514651603149D36091603268D2199370D1
:1011B00053701370737B9B46002B35D022001900AF
:1011C000B068736898473268002820D05B4658465C
:1011D0005B005B44D719033BB870D118D35C002B7C
:1011E00000D07B705B460C7073735C451DD000268D
:1011F00026E06B68BFF35F8F1C6088F310880120C6
:1012000040423CBC90469946A246AB46F8BD5B4680
:101210005B005B44033BD3189C70D119D25D002A5C
:1012200000D05A705B460B7074734A465346287D53
:1012300000F060FC061EDAD02100286800F0D2FE23
:10124000EB686A681B19013B1B78BFF35F8F0021B5
:10125000116088F310880020002ED2D1180220439C
:10126000CFE7C04624140020FFFFFF0F1911001024
:10127000F8B5574645464E46DE46E0B599460CABB6
:1012800019780DAB1B78050090469A46076800292F
:1012900012D1BE7B002E45D074003B68A419033CDC
:1012A0001B195A783100BA73002A00D1FA73002250
:1012B0009A705A701A7003E00E004C006418033CD8
:1012C0002C4B00229C46AB6861449C464346090176
:1012D00061440B604B464B600A9B8B600B9BCB6061
:1012E0003B681B199A705A701A707B7B9B46002BC7
:1012F0002CD032005946B8687B6898473A68002875
:1013000017D05B4658465B005B441419033BA07042
:10131000D118D35C002B00D063705B460E707B73DA
:10132000B34514D030003CBC90469946A246AB462B
:10133000F8BD5B465B005B44033BD3189E701119FC
:10134000125D002A00D05A705B460B707E734246D5
:101350004B46287D00F0CEFB041E06D05346002BE2
:1013600003D13100286800F03DFE0E9B002BD9D040
:101370001C70D7E7FFFFFF0FF0B5DE464E4657461D
:1013800045460023E0B58DB00A936B4B8200D358DD
:101390000B90994600239B464B46079300F020FB99
:1013A000079C06000F006268EFF3108572B61368A1
:1013B000002BFCD022000794BFF35F8F2468637B6F
:1013C0009946002B67D092685C4B90464B441B01BA
:1013D000984443461A685B6810001900801BB941A5
:1013E00000295FDD0B9800F085FB0023002698465E
:1013F00000279A46079C6368BFF35F8F5A461A60BE
:1014000085F310885346002B08D10028C6D10DB0B3
:101410003CBC90469946A246AB46F0BD0A9B41466D
:1014200018024B461843D047089009916268EFF3C1
:10143000108572B61368002BFCD00794BFF35F8F42
:101440000899099A002A48DB114303D0079B1B69BE
:10145000002B5DD1079B1B68DA7B002A07D0510067
:101460008A1819688C4649466244033A51704A46C4
:10147000DA734B46079A013BD168CA5C0132CA5401
:101480005B46079A13615368BFF35F8F5A461A6031
:1014900085F3108882E700230026984600279A46A5
:1014A0000020A7E7002901D100289BD100212000BE
:1014B00000F0FAFC43461E685F689B68079A9A46EC
:1014C0004346DB689846D3684B44013B1B780A933C
:1014D0001B020343136100208CE72369002BB9D062
:1014E00033003C005B1A94411A002300A74219D82C
:1014F0009F421BD059460491012103914946029114
:1015000041460191514607980091FFF7B1FEB7E7B8
:1015100000F066FA089A099B06000F0092197B41B9
:101520009942E5D901225242D317E3E79642E1D925
:1015300001225242D317DDE7A02A0020FFFFFF0F50
:1015400010B5124C6368002B04D00A21104800F03B
:1015500063FB10BD23000F4A1021206800F0C2FB7E
:10156000032000F031FA032000F036FB03200A4983
:1015700000F07AFAFFF728FD084B9C4603236044ED
:101580002375074B80006060DC60DEE724140020D8
:10159000BC2A0020E5100010791300104000003430
:1015A000A02A00200048704724140020F0B55746B8
:1015B0004546DE464E46E0B585B0019310AB1B783C
:1015C00000270393002380469A46009243465A68B8
:1015D000EFF3108972B61368002BFCD0BFF35F8F56
:1015E00043461D68AC7B002C4FD066002B68361933
:1015F000033E9B195A78AA73002A00D1EA73424627
:101600009F705F701F709268524B94460099019AC8
:10161000E3181B01634419605A600E9A9A600F9A8E
:10162000DA602B689B199F705F701F706B7B9B4605
:10163000002B46D022001900A8686B6898472A68DA
:10164000002831D05B4658465B005B449619033B4B
:10165000B070D118D35C002B00D073705B460C7057
:101660006B735C452ED04346DB681B19013B187831
:1016700043465B68BFF35F8F1F6089F31088534652
:10168000002B2ED10002204307E05B68BFF35F8F81
:101690001C6089F310880120404205B03CBC904694
:1016A0009946A246AB46F0BD5B465B005B44033BFC
:1016B000D3189C709119925D002A00D05A705B4635
:1016C0000B706C734346187D009A019B00F012FA70
:1016D00082460028C7D043462100186800F082FCEB
:1016E000C1E7039B002B32D00E9B00200F99984737
:1016F000030004000D000B4329D000290DDA0098E7
:10170000019902000B00121BAB41994215D81AD067
:1017100000920193039B9A4658E700F061F902009A
:101720000B00A4185D412000290000900191AB42FC
:1017300003D8EFD100998A42ECD901235B42DC1730
:1017400000930194E6E700999142E1D9F5E7002082
:10175000A3E7C046FFFFFF0FF0B504000D0006260B
:101760007642F717C64636196F4100B58F4213D837
:1017700010D000F035F932003B00121A8B41002BDB
:1017800014DC002B37D02900200000F05DF904BCE8
:101790009046F0BD8642ECD90026002700F020F9E3
:1017A00032003B00121A8B41002BEADD3000390079
:1017B000FFF7CAFC0028E6DB00239846BC460F4A28
:1017C0000F4F7B6A9C4504D8B96A8E42DBD99C4591
:1017D000D9D11168EFF3108072B60B68002BFCD0E2
:1017E000BFF35F8F1368BFF35F8F4146196080F3CB
:1017F000108820BFE5E7002AC5D0D7E7BC2A002023
:101800000040054070B5060000F0EAF8FA22040036
:101810000D00002330000021920004F0C1FD0019EA
:1018200069418D4205D802D0FFF796FF70BD844212
:10183000FAD901204042C117F6E7C046F8B5CE46B6
:10184000474680B506000C00FFF77EFC00280CDC44
:101850002D4B0020596A8C4203D89B6A0130B34259
:1018600045D30CBC90469946F8BD20BF274D6A6809
:10187000EFF3108772B61368002BFCD0BFF35F8FB5
:101880002B68C1B29C465B7B8B4235D0FF23034063
:101890005A00914662461268994490464A4642442C
:1018A000033A9278002A1DD0EA68000A9046434421
:1018B000013B1B78C0B2834221D06B68BFF35F8FBE
:1018C00000221A6087F310880F4A0020536A9C4256
:1018D000C7D8926A0130B242C3D2E41A601E844172
:1018E000E0B2BEE72B699842E7D12A61E5E7641AC6
:1018F000601E8441E0B2B4E7FF230340D4E76046B2
:1019000000F070FBD9E7C0460040054024140020D9
:10191000F0B5D6464F464646C0B5EFF305833F22A5
:10192000134018001038EFF3108C72B6204D2A685F
:10193000002AFCD0BFF35F8F0122110081401D4CB3
:10194000884661631C4917000E788A463100C14001
:101950000F400A4215D019498200646A51588C42DE
:1019600019D3174BD25843469E4353461E70BFF3BC
:101970005F8F00232B608CF31088002A06D09047DD
:1019800004E0BFF35F8F2F608CF310881CBC90467F
:101990009946A246F0BD0B4A9B00904643441A6804
:1019A0001A60BFF35F8F00232B608CF31088EDE784
:1019B000280100D000400540F62A0020C82A002057
:1019C000B4230020D03F054010B50100024A03486F
:1019D000FFF772FA10BDC046B0EE0010F32A0020E7
:1019E000034B596A0A00986A596A8A42FAD17047C9
:1019F0000040054070B504000D00124A536A1900FA
:101A0000966A536A8B42FAD13000190024184D416E
:101A1000AB4211D80ED02B000A494A6A9A42FCD335
:101A200007D1084A02E0516A994202D1916AA14263
:101A3000F9D370BDA642EED9012301246442E51713
:101A40005B42E9E700400540064A536A9942FCD8E8
:101A500007D1044B02E05A6A914202D19A6A82424B
:101A6000F9D370470040054070B504000D00EFF356
:101A7000108672B61A4A1368002BFCD0BFF35F8F32
:101A8000002D1BD0200000F01DFD164981420AD018
:101A9000200000F01FFD0121200000F0F9FC0123CF
:101AA000A340114A1360114BA400E550BFF35F8FB0
:101AB00000220B4B1A6086F3108870BD0B4BA200FE
:101AC000D5500122A2400A4920000B7893430B70A5
:101AD000044900F029FD0021200000F0D9FCE5E7D1
:101AE000280100D01119001038600540B4230020EF
:101AF000F62A0020F0B54F46D6464646C0B5070048
:101B0000304C616A0D00A66A616AA942FAD18B4223
:101B100008D805D001201CBC90469946A246F0BDCD
:101B2000B242F7D9EFF3108972B62748016800294D
:101B3000FCD0BFF35F8F01252449BD408C46097856
:101B4000204C0E002E438846F1B28A46614650462C
:101B50000870391D1E48890065630A51B9000B5091
:101B6000216A0020294219D0616A0800A66A616AC8
:101B70008142FAD18B4219D801D1B24216D8C2455E
:101B80001DD0104B1F201D625D6301230740BB4029
:101B9000104A1E381360634642461A70BFF35F8FC7
:101BA0000022094B1A6089F31088B4E70020BFF3C4
:101BB0005F8F0022044B1A6089F31088ABE7012085
:101BC000ECE7C04600400540280100D0F62A00207E
:101BD000C82A002080E200E010B5EFF3108472B64E
:101BE0000A490B68002BFCD0BFF35F8F01238340B1
:101BF000074A0848136202789A430270BFF35F8F66
:101C000000230B6084F3108810BDC046280100D06B
:101C100000400540F62A0020024B9C4661448900A2
:101C2000016070474000003410B50400FFF7CCF9A4
:101C300001002000FFF7F0FFFF232371BFF35F8F48
:101C400010BDC04610B50400FFF7BEF9010020002A
:101C5000FFF7E2FFFF23A380BFF35F8F10BDC046F5
:101C600010B504000120FFF7BBF9034BC3189B001C
:101C70002360BFF35F8F10BD4000003470B50500D6
:101C80000E001400002924D0002A24D080686B683C
:101C90009847296800280ED063001B197200033B87
:101CA0009219CB18033A9E7088188A5C002A14D1C6
:101CB000047030000EE073009B196200033B1219A0
:101CC000CB18033A9C7088188A5C002A00D05A709E
:101CD0000670200070BD0800FCE75A7004703000E8
:101CE000F8E7C04630B583600023CCB243730133BC
:101CF000047342608373C4730D000068012C06D91D
:101D0000421C0133DBB2137003329C42F9D1FF2134
:101D100029404B005918002340180338437030BD48
:101D2000F8B5CE46474606000C0080B5002907D01E
:101D30004D0003686D18033D5A195778002F04D1E0
:101D400020000CBC90469946F8BD7900C9190339AA
:101D50008846434459788946002159705170736808
:101D60003A002100806898473368002814D0424622
:101D70009A18947059195B5D002B00D053700F7046
:101D8000270049463000FFF7CBFF39000200300042
:101D9000FFF774FF0400D3E7424641465D19AF7078
:101DA0009A185B5C002B00D06B701470E9E7C0469A
:101DB000F0B557464546DE464E46E0B50D006B0091
:101DC00001685B19DF1E0400C85D83B00192CA1967
:101DD00000284CD043001B18033BCB185E78B44658
:101DE000002E16D1019E002E3ED0E67B002E04D0A0
:101DF00073009B19CB18033B5D70E57300282FD14E
:101E00000023537003B03CBC90469946A246AB46B3
:101E1000F0BD72006244033A89184A789046002265
:101E20004A7091465A70010032002000FFF726FFE9
:101E300043468246002B07D05B0021684344033BA6
:101E4000CB185A78002A16D1424651462000FFF797
:101E500015FF2168019BCA19002BC6D10028CFD0DD
:101E600043001B18033BCB1800219970C8E7019B66
:101E7000002BBAD1C4E750008018033809184878FD
:101E8000834648464870587041462000FFF7F6FEEA
:101E9000594680462000FFF743FF414602002000DC
:101EA000FFF7ECFE8046CFE7F0B54E464546DE46EE
:101EB0005746E0B5467B040075000068AD19033D48
:101EC00083B00191415D421900294ED04B005B184F
:101ED000033BC3185F78BC46002F18D1019D002D2D
:101EE00040D0E57B002D04D06B005B19C318033B89
:101EF0005E70E673002931D10023300053706173A6
:101F000003B03CBC90469946A246AB46F0BD7A0071
:101F10006244033A80184278934600224270914608
:101F20005A7020003A00FFF7A9FE5B468046002B5E
:101F300007D05B0021685B44033BCB185A78002A2A
:101F400017D15A4641462000FFF798FE019B010039
:101F500020684219002BC4D10029CDD04B005B185A
:101F6000033BC31800209870C6E7019B002BB8D133
:101F7000C2E750008018033809184878824648465E
:101F80004870587059462000FFF778FE5346834644
:101F9000002B07D05B0021685344033BCB185A78D1
:101FA000002A06D1594652462000FFF767FE8346B5
:101FB000C7E7500080180338091848464F78487022
:101FC000587051462000FFF759FE39008146200025
:101FD000FFF7A6FE494602002000FFF74FFE8246AB
:101FE000E0E7C04670B5040000292CD0437B8B424B
:101FF0002ED0056848004018033828188278002A37
:1020000021D053009B18033BEA5CEE188A4202D1B0
:102010001BE0002A08D053009B18033BEB185A78AA
:102020008A42F6D142785A700023012283704370AD
:102030002000FFF7BDFE617B02002000FFF71EFEBF
:102040006073012000E0002070BD43783370EBE73F
:1020500001221900FFF7ACFE60730120F4E7C046CF
:102060002C4B2D4A70B51A602C4A2D4B2D491A6005
:1020700010008B689843FBD12B4C2C4B9C4209D20F
:10208000013B1D1BAD080135AD002D1908CC98474B
:10209000AC42FBD100F098F8254A214B1A60214A46
:1020A0009368DB018033FBD14022224B224C234D2D
:1020B0009A675A671A67DA66AC4208D2236820002A
:1020C000002B21D00834FFF7BDFDAC42F6D31C4CE9
:1020D0001C4DA168C022280004F092FAA560FEF70A
:1020E00065FF00F059FBFFF72BFA174C174B9C428A
:1020F00009D2013B1D1BAD080135AD002D1908CCDF
:102100009847A542FBD170BD0834FFF78DFDAC4266
:10211000D4D3DCE700E00040BFCDFBFEFE7F3C00F7
:1021200000F0004000C00040681D0020781D002025
:10213000FFFFFF0100F00140601D0020681D00202E
:1021400000ED00E000000020781D0020AC1D002004
:1021500000BEFDE7094A03001068002805D00849C1
:10216000C3188B4207D81360704706480449C31848
:1021700010608B42F7D901204042F5E76825002026
:1021800000000420C02D002000BEFDE70FB400B504
:10219000084883B004F090FB049B002B07D005A9EE
:1021A0001800019101F0E6FE034804F085FB00BE33
:1021B000FDE7C046D4EE001008F4001010B5014849
:1021C000FFF7E4FFE4EE001030B50C2083B000F020
:1021D00047FBFEF7E3FE00280ED0944B944A1A60AA
:1021E0005A609A60DA601A615A619A61DA611A6219
:1021F000904A5A6203B030BD8F4CA06700F084FB58
:1022000001228E4B1A60636C012BFCD103228C4B94
:102210001A60894A936B012BFCD102240121894A5F
:1022200089480533009400F0C9FA0523874A012143
:102230008748009400F0C2FA864B5A68FF2A02D8F9
:10224000802252005A608022784C7D4B2169120115
:10225000804D1A60002905D0606901F001FF01304E
:102260000138FDD1E0217B4B02201A681140802209
:1022700052012A431160196848400321014011604E
:1022800004219A681142FCD08022802192012A43C5
:1022900009011160802252005A606F4B23616F4B1D
:1022A0005968FF2900D85A6003226C48634B01210A
:1022B0001A60020093681942FCD0E02513681D40A3
:1022C00080235B0103431D6012684A4003211140D3
:1022D00019600221614A93681942FCD08023802151
:1022E0009B0103430901196080215D4B4900516046
:1022F00063615C4B5A68FF2A00D8596080225A4BB0
:10230000E1691201574D1A60002905D0606901F09A
:10231000A7FE01300138FDD1E02252490B681A4076
:1023200080235B012B431A60802380229B012B4377
:1023300012011A6080223E4B52004A60E3614B4B0F
:102340005968FF2900D85A608022494B216A12013E
:10235000464D1A60002905D0606901F081FE013008
:102360000138FDD1E02241490B681A4080235B010E
:102370002B431A60802380229B012B4312011A6099
:10238000802380225B004B60294BD2022362394BB1
:102390005968914200D25A608022374B616A12011B
:1023A000344D1A60002905D0606901F059FE0130F2
:1023B0000138FDD1E0222F490B681A4080235B01D0
:1023C0002B431A60802380229B012B4312011A6049
:1023D0008023DB024B60174B6362284B5A68FF2A4D
:1023E00002D8802252005A608022254BA169120136
:1023F000224D1A60002905D0606901F031FE0130DC
:102400000138FDD1E0221D490B681A4080235B0191
:102410002B431A60802380229B012B4312011A60F8
:1024200080235B004B600E4BA361E3E6CC240020CD
:10243000006CDC021BB70000008000403CB0004094
:1024400030B00040002F68590080024000389C1CCA
:1024500000C0024030800040001BB7003C800040BC
:10246000405973075480004054B0004060800040E1
:1024700060B000406C8000406CB00040488000407C
:1024800048B00040014B8000C0587047CC24002069
:1024900001238340002904D0034A1360034A1360D8
:1024A0007047034A1360FBE780E200E000E100E0D0
:1024B00080E100E001238340014A13607047C04679
:1024C00000E200E0024B10309B688000C05870476B
:1024D00000ED00E070B50D00EFF3108672B60F4A04
:1024E0001368002BFCD0BFF35F8F0D4B10309B683F
:1024F00084001B590B4A934203D09D4201D0FFF741
:102500005DFE074B9B681D51BFF35F8FBFF35F8F6D
:102510000022024B1A6086F3108870BD240100D09F
:1025200000ED00E0CD010010F0B5DE4657464E4606
:102530004546E0B50C0083B0EFF3108A72B65B4AF3
:102540001368002BFCD0BFF35F8F102291468144AB
:102550004A46574B96009B689D59564B98469D425C
:1025600005D0A54216D0544FEB1B2F2B14D9504B3E
:102570009B689D51BFF35F8FBFF35F8F00224B4B72
:102580001A608AF3108803B03CBC90469946A24674
:10259000AB46F0BD1D00EAE7012383409B465A4647
:1025A000464B1B681A4000925A46454B1A60BFF3CF
:1025B0005F8FFDF758FE0190002803D0814501D0C0
:1025C000FFF7FCFD01232A009A4313003D49DB1B62
:1025D0005B415943090D93689C4208D15BE043007D
:1025E0001B189B00FB189868A04211D01A00062007
:1025F00010560028F3DA009B002B05D05A46324BC8
:102600001A602E4B1A60B2E75A462D4B1A60AEE79D
:1026100006201856002822DB4200111889007C1879
:102620008846A1689960E179D9710621615699714E
:10263000A1797F291FD8A488F91A64052415444478
:102640000919E0240905490D240221439980121833
:102650001E4B9200BF181A781870BA71CBE7019818
:1026600000280BD1FF30907119489080174A1078DC
:1026700011709871BFE7BD210902E7E7154A1649B5
:10268000D21A083A5002400D01439980134952086A
:102690000A43DA80AFE70620105613000028BBDAA1
:1026A000019A002AEAD14546E0E7C046240100D05D
:1026B00000ED00E0CD0100104C14002000E100E02E
:1026C00080E100E0AAAA000080E200E0F42A0020F5
:1026D00000BDFFFF8614002000F0FFFF00F8FFFFA1
:1026E000F8B5012504000543FDF7BDFD0300EFF338
:1026F000108672B621490A68002AFCD0BFF35F8FAA
:102700001F4A20001F49801A40414143090D1E48BD
:102710009B00876849B2FF58AF421CD00623D356AE
:102720008B421CD01223D3568B4222D01E23D35669
:102730008B4220D02A23D35603208B4210D0134B38
:102740001A781970A271BFF35F8F00220B4B1A60C9
:1027500086F31088F8BD82680D48D050EFE700205E
:1027600043001B189B00D218FF239371094B9380E1
:10277000E5E70120F4E70220F2E7C046240100D09B
:102780004C140020AAAA000000ED00E0F42A00206A
:10279000CD01001000BDFFFF054B064A1360064A3D
:1027A000136053609360D36013615361936170470A
:1027B0008080808000E400E004E400E0F8B50400DC
:1027C0000C2017001D000E0001F04AFC4101091AFF
:1027D0008B01591AC90009188901380001F040FC21
:1027E000069A2B04120313432268002A21DB184A9D
:1027F000A21851424A41802149018C4652420A4066
:10280000144962440A6014490A60144917008D682B
:10281000AF43FBD1C021221D890111432122266033
:10282000A0600A602268002AFCDAE36008230B60DB
:10283000F8BD3F2221680A40B242D8D1A2681205F1
:10284000120D8242D3D1E268002BD0D1F0E7C0460E
:102850000040FDBF00E0004000F0004000C000402C
:102860008023024A9B000343D362704700800540E7
:1028700010B5140080221B4BD2051A6000281AD014
:102880000123194A1843194BDA61194A42401A6266
:10289000596298628022134BD2051A601549164A74
:1028A0001160E022D2041A60002C07D18022134B61
:1028B00012061A6010BD0D4BD861EBE78023620150
:1028C000121B9200121912015B049A4200D30C4AA7
:1028D0000C4B1A60054B5A608022084BD2051A60D7
:1028E000E8E7C04600B00540D3C007B0008005400F
:1028F0002D3FF84FFCFF01000820014000A00540DB
:10290000FFFFFF00842A0020AA23064A1B01136050
:102910002F230549D360054B19605368002BFCDA5F
:102920007047C0460040024000B0FA00006002401C
:102930007047C046F8B557464E46DE464546E0B5B8
:102940001F000A9B05009B460D9B0E009146924678
:102950009B0718D10B9B0C9A934214D213000B9A2D
:10296000B8469B1A4B444C460F0006001D0022003F
:102970004346013439002020B047AC42F7D1AA4683
:1029800035003E0047460B9B002B38D09A441C0074
:10299000D04653461A1B5B46013C185D31003B0094
:1029A000A847002CF5D10D9B9B0721D543464A46ED
:1029B0009C1A0C9BA3421BD93A009A464F4691465B
:1029C000E2194B46310020200134A8475445F7D383
:1029D00043460C99DB1B0133B9460022994203D3CD
:1029E00043464A1E4A44D21A43469046013398440D
:1029F00040463CBC90469946A246AB46F8BDD04600
:102A0000D1E7C046F0B54F464646D646C0B584B07D
:102A100098460EAB1B78129F994694460D9C109BCE
:102A2000119EBA0725D4002E69D19C4200D3C2E082
:102A300001223A4092461F2C00D9BBE00C9A551E49
:102A4000302201E0202C03D001342A55A342F9D8CA
:102A50005246002A0DD0B4420BD21F2C62D80C9AD9
:102A6000551E302201E0202C5CD001342A55B4429E
:102A7000F9D1FA0635D57A055DD4002C57D10F9BD4
:102A8000102B00D17CE00F9B022B00D18DE0302376
:102A90000C9A012413704B46002B27D02D230C9A3F
:102AA000135501340C9B62460093039743460296EC
:102AB0000194FFF73FFF04B01CBC90469946A24624
:102AC000F0BDBB0663D4202CECD00C9B1A1901344A
:102AD00078231370202CE5D030220C9B1B191A7020
:102AE0000134202CDED04B46002BD7D17B0735D4C8
:102AF0003B07D7D520230C9A13550134D2E7012286
:102B000015003D40AA463A4220D04A46002A2AD122
:102B10000C323A4227D19C429DD21F2C00D88DE71F
:102B2000202E19D92024FA06BCD57A0503D4A34255
:102B30001BD0A64219D00F9B102BC2D0022BC9D19B
:102B4000202CAFD00C9B1B19013440E09C4200D3D9
:102B50008FE71F2C00D871E720248AE72B230C9ADB
:102B6000135501349EE7013ED5E7631E012C00D1C9
:102B700085E70F9A102A20D0022A25D01C00ABE747
:102B8000BB060DD478230C9A01241370A4E7202CE3
:102B900000D187E758220C9B1B191A70013499E762
:102BA00058230C9A0124137096E70C9A6033012481
:102BB000137091E7202400265BE7023CBA06E9D4B3
:102BC0000C9A12191C0083E70C9A92465344622215
:102BD0001A707FE710B5002800D110BD03F01AFE6F
:102BE000FBE7C0460B0010B5002802D049681B68FF
:102BF000984710BDF0B5DE46574645464E46E0B50F
:102C00009BB09B46249B0A909846259B0B910C9267
:102C10004046424619009A4601F007FD002800D0C0
:102C2000E8E00122404651467F4B524201F0F8FC59
:102C3000002800D0DEE00122404651467B4B524244
:102C400001F0D8FC002800D0D4E000220023404648
:102C5000514601F0CFFC002800D0CAE15346C146DE
:102C600009938023289ADB001A400E92289A1A4270
:102C700001D1062326934C46099B234300D0D9E07B
:102C8000289B002600271B0500D4AEE100230D93EE
:102C9000269B19000D9B994200DCB0E1C81A431E27
:102CA00026938023289ADB001A43002300252892CC
:102CB0000D93279B0024AB4200D95C1B0223289A6A
:102CC0001A400E92289A134203D06B426B415B422A
:102CD0001C400D9B002B07D04846099932003B0051
:102CE00001F01FFC81460991002200234046514615
:102CF00001F080FC002805D0802000068446099958
:102D000061440991289A4A4B0A9E13404A4604930B
:102D1000269B0B990293099B039400920193300028
:102D20005B460C9A884600F0A1F90400002D72D091
:102D3000289B220098061F23C017984341465B46F4
:102D40006530B0470D9B671CDA179C18DB0F98465F
:102D50006B1E99460025544001E0202D13D00AAA8D
:102D600094461F23200063440A2101355E1901F0B7
:102D700077F93031317020000A2101F071F9260015
:102D80000400092EE9D8052306934B46059300233A
:102D900004930A33039343463A000A9E0B9F02931F
:102DA00012AB009339005B4630000195FFF72AFE15
:102DB0000E9B0400002B2ED00C9B279AC51AAA420A
:102DC00029D93C00814698461700434621005A19EC
:102DD00020205B460135B047AF42F6D84C460C99EF
:102DE0002798631A01330022984200D30AE1013484
:102DF000141910E0289B42460493279B0B990393D8
:102E0000269B0A9802935346009201935B460C9AC4
:102E100000F02CF9040020001BB03CBC9046994601
:102E2000A246AB46F0BDC046FFFFEF7FFFFFEFFFBE
:102E3000FFF7FFFF764B099D9C466800400D6044FC
:102E400001F006FC734A744B01F089FB734A744B22
:102E500001F05EFB2B03734A1B0B1A4306000F00A5
:102E6000714B110048460022099501F048FB6F4A5A
:102E70006F4B01F074FB02000B003000390001F0D1
:102E800047FB01F0FDFB0D9001F0E2FB694A6A4B44
:102E900004000D0001F063FB0022684B01F038FBD9
:102EA00001F0EEFB664A0600664B2000290001F0A7
:102EB00056FB040030000D000F9601F0C9FB624A7A
:102EC000624B01F04CFB02000B002000290001F0D6
:102ED00016FB02000B0006000F0001F040FB320061
:102EE00004000D003B003000390001F011FB00220E
:102EF00010901191564B2000290001F012FB002286
:102F0000544B01F005FB02000B002000290001F0EA
:102F100008FB0022504B01F0FBFA02000B002000DE
:102F2000290001F0FEFA0D00802132003B00040070
:102F3000C905002001F0E3FA02000B00200029007F
:102F400001F0E6FA02000B001098119901F0E9FA7D
:102F50000022344B01F0DCFA404A0F9B9446634454
:102F600000221B0501F0FBFA06000F0002000B0017
:102F70004846099901F03EFB00280AD00D9B30001D
:102F8000013B39000D930022324B01F0CAFA0600D2
:102F90000F00C6250D99330063318D42AD4128994C
:102FA0006D420435090500D483E63B4300D16FE64A
:102FB000099C484621002A4A2A4B01F029FB002897
:102FC00008D0002248462100274B01F013FB0028BF
:102FD00000D05DE6269B002B00D16AE60E9B5A1EB0
:102FE0009341269AD31A269363E6002304250D9372
:102FF0005FE680231B065344C146099331E6002354
:1030000026934EE60A008446013A6244121BEEE61D
:1030100001FCFFFFFB799F501344D33FB3C8608B83
:10302000288AC63F0000F03F0000F83F61436F630D
:10303000A787D23F71A379094F930A400000E03F70
:103040001655B5BBB16B0240EF39FAFE422EE63F92
:1030500000002C400000244000001840FF03000046
:103060002D431CEBE2361A3F80842E41F0B54E46CC
:10307000DE4657464546E0B597B09946209E219FCB
:10308000229B8346984607910C923B003200300009
:10309000390001F0CAFA002800D0C1E10122300055
:1030A0003900CA4B524201F0A5FA002800D0E0E0F6
:1030B000012230003900C64B524201F0B1FA00281B
:1030C00000D0B6E0002230003900C24B01F0A8FA6F
:1030D000002800D098E0002230003900BE4B01F0FB
:1030E00089FA002800D08FE0002200233000390048
:1030F00001F080FA002800D0B0E000230D93249B5B
:103100005B0501D40623984608AB9C461722002491
:1031100030234146624404E0013413550139202C28
:1031200001D00929F8D888463000390001F0A8FA02
:103130004346DA00A94B05009B181A685B680892A1
:10314000099301F085FA02000B003000390001F00C
:10315000D6F9089A099B01F002FA0A900B9101F046
:10316000B3FA824601F070FA02000B000A980B993C
:1031700001F0C5F900229A4B0A900B9101F050FA28
:10318000002800D1C0E001239C46E244504601F0F3
:103190005BFA02000B000898099901F031FA002847
:1031A00002D000239A4601354346002B69D008AB74
:1031B00017269C4608956644554614E001235B4259
:1031C00043440A2128009A4600F04AFF0134303176
:1031D0003719397028000A2100F042FF092D00D864
:1031E000D5E0D0460500202CE8D10323249A1340D3
:1031F000012B00D100E10EAB9846249B0194039370
:10320000239B029343461EE0249B58460493239B32
:1032100000960197039343460C9A029307994B46F5
:10322000FFF7E8FC17B03CBC90469946A246AB4677
:10323000F0BD249B5B070ED403226A4B24990192B4
:10324000039123990291009358464B460C9A079993
:10325000FFF770FBE6E70422634BEFE73B00320029
:103260000020002101F04BF9012306000F000D930F
:1032700045E7249B0393239B0293042301935B4B19
:10328000E1E7280001F0E4F902000B00300039000A
:1032900001F035F9524B002206000F0001F0AAF9A7
:1032A0000EAB984600280AD10022300039004C4B62
:1032B00001F0B6F9002802D1EB0700D50135202C2A
:1032C00032D008AA94461723280063440A21013407
:1032D0001E1900F09DFE3031280031700A2100F0E7
:1032E00097FE051EEBD10323249A1340012B00D136
:1032F00091E01F2C00D980E70D9B002B3BD02D23A4
:1033000042461355013478E700220A980B99344B52
:1033100001F070F9002800D046E75346002B67D132
:1033200001239C46E2443FE70323249A1340012BE8
:1033300000D062E7239B002B00D15EE70D9B002BA2
:1033400003D1249A0C33134202D0239B013B2393D5
:10335000239B9C42CDD208AB9C461722302362446B
:103360001F2C06D82399013413558C42C1D0202C30
:10337000F8D1202441E7249B5B0721D4249B1B0721
:1033800000D43AE7202342461355013435E7574627
:10339000089D202C37D0220030214046002F08D035
:1033A0000132B154202A43D0D3431B191B18002BE0
:1033B000F6D10EAB98462E234146541C8B547EE723
:1033C0002B2342461355013417E7C046FFFFEFFF9A
:1033D000FFFFEF7F65CDCD4165CDCDC1E8F0001099
:1033E0000000E03FF0EE0010F4EE001000EF0010DF
:1033F000DB0700D4D8E693E7239B002B00D1FAE645
:103400000EAB98469AE70323249A1340012B00D071
:10341000F1E60EAB9846239B002B00D169E78DE7C0
:10342000249B0393239B029303230193064B0AE7F8
:103430000323249A20241340012B00D0DBE6239B96
:103440002024002BDCD1D6E6FCEE0010F0B5DE46E1
:103450004E4657464546E0B59FB01C00289B934614
:103460000993CF4ACF4B894608901A60002900D1B2
:1034700016E2002320789A46002800D118E22600A0
:103480001D004C460AE02A006F1C5B46089D210087
:10349000A8473D000136307800287AD02528F2D19F
:1034A00010239A46083B9946043B9846023B00216C
:1034B0009C46721C107816000300203BDBB2102BD8
:1034C00003D8B94F9B00FB589F460300303B092BA4
:1034D0003CD900230A932A2800D171E000239846A2
:1034E0002E2847D00300683BDBB2122B1FD8AF4A0F
:1034F0009B00D3589F46012301321943DAE7634604
:1035000001321943D6E7434601321943D2E7534605
:1035100001321943CEE74B4601321943CAE77078AE
:103520006C2800D1BFE280235B0019430136030001
:10353000253BDBB2532BA6D89D4A9B00D3589F4610
:1035400080235B00707819430136F0E70027030001
:10355000B800C01901364000C018337830381A005E
:10356000303A0700092AF3D90A9018000023984638
:103570002E28B7D180237078DB0019430300303B3D
:10358000721C092B00D895E12A2800D1A6E116006B
:10359000A8E7A146AA462C00D34503D801235B42E5
:1035A0005B449A465B46524649460020089DA84720
:1035B00020001FB03CBC90469946A246AB46F0BDE9
:1035C000099B40CB0A96002E03DB50780993561CCA
:1035D00084E72838014370420A9009935078561CBA
:1035E0007CE7782800D1D4E1582800D168E26F2820
:1035F00000D152E3622800D1D8E110230A009A4397
:103600000B92692801D000F0A2FC0A230C934B0511
:1036100000D4D5E101230B9A9A430B92692800D17B
:10362000CEE1642800D1CBE10B9A802311009B00EE
:1036300019408A461A4200D032E3802311005B0011
:10364000194089461A4201D000F002FC13005B06C3
:1036500000D510E30B9B1B0601D400F06EFC099B08
:1036600004CB1204120C924609935346002B00D04F
:1036700064E30B9A1033110099430B91520500D467
:103680005CE3002399460B9B06930A9B05934346F4
:1036900004930C9B03930023DEE27078682800D12A
:1036A00007E280230136194341E780239B007078AD
:1036B000194301363BE7462800D174E10722099BF4
:1036C0000491073393430A9A1900039242460292E7
:1036D0000CC908980092019309912A005B462100C9
:1036E000FFF7C4FC01360500D5E6099B1A0008CA9D
:1036F0009146002B00D105E1212211438A460EA8F4
:1037000084461F216144099500220F27A4460D001D
:1037100002E0202A0CD00B003C001C402000373077
:10372000092C00D807380132A85419090F2BF0D8FA
:103730006446099DF0E08B0700D4D1E1099B2A0083
:1037400099466B1C98464B4601CB21009946089F31
:103750005B46C0B2B8470A9B9C466544012B00D823
:1037600090E2B2465E464746A846089D3A003300BE
:10377000013721002020A8474745F7D1B3464B46E3
:1037800056463D000993013685E62A006F1C5B46CC
:10379000089D21002520A84701363D007BE6C04654
:1037A0004D3400108029002008EF00104CEF00106D
:1037B00098EF0010099B04CB994643460992002BD1
:1037C00000D097E013789C46002B00D1B3E302238E
:1037D0005B425A1C099B924618000A9F0B92504468
:1037E00002E0834200D169E15A780133002AF8D11E
:1037F000099A0A979B1A0B9380230A00DB001A4050
:103800000C92194204D00B9B434501D943460B93BC
:1038100002231A000A400D920B4200D184E1604657
:10382000002823D00C9B002B00D124E1A844C246E1
:10383000099B57465B1B9846089BB2462A00260008
:103840005C469B4609E023003100551CD84743469F
:10385000585D002800D13FE12A009742F3D1A346EA
:103860003D00340056460D9B002B69D00B9B0A99F6
:10387000A846994264D98C466544ED1A089B474690
:103880009A46B04626005C463A00230001373100D4
:103890002020D047AF42F7D1A346340046464FE040
:1038A000D24B2078089300239A46002800D0E6E502
:1038B000002471E6434606000A9F9800C0180132B2
:1038C000400080191678030030003038303B09285A
:1038D000F3D93000984616000A9703E6099B023692
:1038E00004CB9046D2434046D217104080460993FD
:1038F0003078F7E513789C46002B00D11AE3434655
:10390000013B66E7102208009043113210438246C3
:103910000022490500D4F2E6534606930823059396
:1039200043460493102303930023029316AB0192A2
:1039300000932A005B4621000898FFF763F8050012
:103940004B4601360993A6E5202302009A43472AF5
:1039500004D180231B01194302239843452801D138
:10396000202319430722099B0491073393430A9AA2
:1039700019000392424602920CC9089800920193E2
:1039800009912A005B462100FFF734F90136050052
:1039900081E510230C930C230A009A430B924B05EC
:1039A00000D43BE636E62023194387E602230C9336
:1039B0000B910B996428EED10B9B5B0500D529E692
:1039C0000B9A802311009B0019408A461A4200D0AE
:1039D000CEE0802311005B00194089461A4200D0D6
:1039E000DBE113005B0600D51DE10B9B09991B066B
:1039F00000D499E208C91BB2D8171A18424092B2F3
:103A000009919246DA0F1292002B09D180231022DD
:103A10000B99DB000B4091430B91002B00D012E17E
:103A20000B9A6123920600D541230EA91F228C46D2
:103A3000DBB262440A3B57461395A2464D460C9CA6
:103A4000B1460D9316000AE03033DBB201357355F1
:103A5000A74200D21CE1202D00D119E1070021006E
:103A6000380000F0FDFACBB20929EDD90D9A944641
:103A70006344DBB2EAE7099B5F465B1B98460A9BFF
:103A8000B3469A462600089C2A003B003100A04716
:103A900043460135585D0028F6D1534634000A9359
:103AA0005E46BB46DFE6C0239B00B0781943023672
:103AB0003DE5C023B0781943023638E50A979BE606
:103AC0000C230A009A4314331A4310230B920C93CD
:103AD0004B0500D4A8E59DE5A34634005646C2E652
:103AE0000A9A012A00D82EE26B1E9F18089BB04646
:103AF000994626005C462A0023000135310020202B
:103B0000C847BD42F7D1A34634004646099B3A0058
:103B100001CB210098467D1C5B46089FC0B2B84788
:103B2000434601360993B6E40B9A0A98531C904217
:103B300000D80AE243199B1A1F00089BB2462600D0
:103B40005C469B462A002300013531002020D847DF
:103B5000BD42F7D10A9BA34601330B93099B340066
:103B60001B7856469C466046002800D05AE6E7E699
:103B70000722099B07339343013294469C446246D3
:103B80005F6809921A68FB171093119310981199A6
:103B9000030053400E930B007B400F9394460E9A04
:103BA0000F9B121A8B410E920F93FB0F62461293DA
:103BB00000233A439A463DD00B9A6123920600D5E2
:103BC00041230022DBB20EA90A3B8C4691460D939D
:103BD00043461F326244139515964D460E9E0F9F25
:103BE000A14690460C9C14930FE0C046312900106A
:103BF0003032D2B2434601355A55BA4500D17CE144
:103C0000202D00D17CE106000F00220000233000AF
:103C1000390000F067FAD2B2092AE9D90D9B9C4617
:103C20006244D2B2E6E7FF23099904C913401A009F
:103C30000991E6E60B9A1033110099430B91520556
:103C4000BAD5002399460B9B06930A9B05934346DE
:103C500004930C9B0393129B02934B46019316AB68
:103C60002A00009321005B460898FEF7CBFE013640
:103C70000500FFF710FCFF22099B02CB11408A468A
:103C80000993F2E44B46454609930136FFF703FCDE
:103C90004E465446A946139DD5E708230C9387E664
:103CA0000722099B07339343013294469C446246A2
:103CB00009921A685B6810009A4613005246134333
:103CC00007D10B9A1033110099430B91520500D57F
:103CD000D7E40B9A6123920600D541230022DBB280
:103CE0000EA90A3B8C4691460D9343461F3262440F
:103CF00057461295A2464D460400B14690460C9E8A
:103D000013930DE03032D2B2434601355A550023A9
:103D1000BB4200D1FDE0202D00D1FDE004000F00EA
:103D2000320000232000390000F0DCF9D2B2092A69
:103D3000E8D90D9B9C466244D2B2E5E70B9A612319
:103D4000920600D54123DBB20EA90A3B1F228C4606
:103D50000D93230062445446129517004D469A462F
:103D6000B1460C9E08E03033DBB201357B55B442DE
:103D70000ED3202D0CD004003100200000F070F98B
:103D8000CBB20929EFD90D9A94466344DBB2ECE734
:103D90004E465446A946129D75E4099B1A0008CA6E
:103DA000D91713925A184A409146DA0F1292002BF3
:103DB00008D1802310220B99DB000B4091430B911B
:103DC000002B2BD10B9A6123920600D541230EAA1A
:103DD0001F279446DBB20A3B0D956744554609936D
:103DE000A2464C46B1460C9E08E03033DBB20135AA
:103DF0007B55B4420ED3202D0CD00400310020009E
:103E000000F02EF9CBB20929EFD9099A9446634400
:103E1000DBB2ECE74E465446AA460D9D0B9B2A00AA
:103E200006930A9B21000593434604930C9B089834
:103E30000393129B013602935346019316AB0093F2
:103E40005B46FEF7DFFD139B05000993FFF723FB9D
:103E5000099B04CB91461293002A08D1802310229B
:103E60000B99DB000B4091430B91002B2BD10B9A4C
:103E70006123920600D541230EAA1F279446DBB288
:103E80000A3B0D95674455460993A2464C46B146F8
:103E90000C9E08E03033DBB201357B55B4420ED3C3
:103EA000202D0CD004003100200000F0D9F8CBB256
:103EB0000929EFD9099A94466344DBB2ECE74E46F0
:103EC0005446AA460D9D0B9B2A0006930A9B21008F
:103ED0000593434604930C9B089803930023029395
:103EE0005346019316AB00935B46FEF78BFD129B86
:103EF000050009930136FFF7CEFAB44200D87FE6F9
:103F0000149B4C460E960F97A9469846159E139DF6
:103F100099E6A64200D8FEE6139B4E469846A9466F
:103F20005446129DFFF7AFFB08C9D8171A18424034
:103F3000099166E500230B935EE4099B04CB92464E
:103F40000993FFF792FB2F00E0E50B930BE6063B8E
:103F50000C932EE500B585B00391012102900093EA
:103F6000034813004A4202A9FFF770FA05B000BDEA
:103F7000E52B001010B5094A0300146884B0002C2A
:103F800008D0012200910648524203A9A04701200F
:103F900004B010BD02F090FC0020F9E78029002059
:103FA000D52B001001480421014B1847A014002014
:103FB000D53F0010142310B50100188804331B8866
:103FC000984710BD162310B50100188802331B88CE
:103FD000984710BDF0B5C64600B5002916D0142389
:103FE0000400012598461827890046184346216891
:103FF00018883B88984701C4431E984140420540B9
:10400000A642F3D1280004BC9046F0BD0125F9E793
:10401000124A936F9B0815D29066D166002905D08D
:10402000FFE7FFE7FFE7516F106F704704B580218E
:104030000906C2175140002800D0C8430AF0D8FD35
:10404000002104BDF0B5146E556E576F166FFFF763
:10405000E3FF1466556657671667F0BD000000D091
:10406000114A936F9B0813D210665166002905D040
:10407000FFE7FFE7FFE7516F106F704704B50028B7
:1040800001D00020C0430AF0B3FD002104BDC046AA
:10409000F0B5146E556E576F166FFFF7E5FF146697
:1040A000556657671667F0BD000000D094464E4A2B
:1040B000926F9208624601D230E0C046F0B54A4E97
:1040C000B56F6D08FCD3346E756E776F366F00F088
:1040D00025F89446444A1466556657671667624643
:1040E000F0BDC0469446404A926F9208624601D2A3
:1040F00058E0C046F0B53C4EB56F6D08FCD3346E49
:10410000756E776F366F00F04DF89446364A146638
:104110005566576716676246F0BDC046002B24DB24
:1041200011D000293EDA00B5C943404200D1013127
:1041300000F038F8C943404200D10131DB4352421C
:1041400000D1013300BD002AEBD1002801D10029A4
:1041500005D00020C90FC90701D1C043410800B5EF
:104160000AF016FD0022002300BD00B500290ADB7D
:10417000DB43524200D1013300F014F8C9434042FE
:1041800000D1013100BDC943404200D10131DB43C0
:10419000524200D1013300F005F8DB43524200D116
:1041A000013300BD002923D1002B18D1002A0CD0E7
:1041B000BC460D4F38667A6600210023FFE7FFE713
:1041C000FFE77A6F386F67467047002801D00748CD
:1041D000010000B50AF0DCFC0022002300BD020053
:1041E0000B00002000217047000000D0FFFFFFFF00
:1041F000002B00D0BFE0130C28D1002AE7D080B4F8
:10420000114F39667A66FFE7FFE730B4040C7B6F25
:10421000396F1B0423433B667A66FFE7FFE7FFE73E
:10422000C04684B27B6F3D6F1B0423433B667A66B6
:10423000FFE7FFE7C04600232C042D0C7A6F386F90
:1042400000196941B0BC7047000000D0F0B5944639
:104250000025140E01D112020835140F01D11201EC
:104260000435940F01D192000235D40F01D15200D0
:104270000135D40B0134254F7C66254C3C660E0C71
:1042800093B2FFE7FFE7FFE73C6F6643360C770327
:10429000BE467343DF0B5B04C01AB941130C734372
:1042A000DB18C91ACE086643360CB64493B2734382
:1042B0001F0F1B01C01AB941130C73431F0B1B05C1
:1042C000C01AB941860D8F023E436643360C092D54
:1042D00024DB520A7243801A7703460A6643360C7F
:1042E00016235B1BDE40DF40BF1964466643821B1A
:1042F0007046043506330100D940A840C01900D3E8
:104300000131A24206D20023F0BD0000000000D01F
:10431000FFFFFFFF121B0130F3D3F1E709277F1BDB
:10432000FE406446A2B27243801A00D20139220CC8
:104330007243130C1204821A99410B007046043523
:1043400013370100F940A840801900D30131002B38
:1043500002D1A2420AD2F0BD013000D30131121BBA
:10436000FAD2013BF8D1A24200D2F0BD013000D315
:104370000131121BF7E7F0B51C0C00D080E00CB443
:1043800000251C0A04D11B02160E33431202083505
:104390001C0B04D11B01160F3343120104359C0B77
:1043A00004D19B00960F334392000235DC0B02D1FF
:1043B00092185B4101351C00971864410134464F47
:1043C0007C66464C3C660E0CFFE7FFE7FFE7C04605
:1043D0003C6F6643360C7703BE4697B27743C01BEB
:1043E00000D20139C01B00D201399FB27743C91BEB
:1043F000C91B170C77437E04FF0B801BB941CE0805
:104400006643360C0C2D33DBB644120B1F053A43C2
:104410001B0B97B27743C01B00D201399FB2774381
:10442000C91B170C77433E043F0C801BB941860D16
:104430008F023E43664329277F1BFE400C3D774693
:10444000AF40BF1930BCA2B2ABB272437343801A03
:104450009941220C7243130C1204801A99410200F4
:104460000B000137001BA941F9D2781E0021F0BDD5
:104470000C277F1BFE4077467F0BAF40FF19E0E71C
:1044800000245D1C07D0144F7D663966FFE7FFE707
:10449000FFE7FFE73C6F95B29EB265436643401B62
:1044A000B141150C1E0C6543664336042F0C3E4388
:1044B0002D04401BB141994204D202000B002000A0
:1044C0000021F0BD01D19042F7D3801A9941013407
:1044D0009942F2D3F6E70000000000D0FFFFFFFF93
:1044E00044464D4656465F46F0B47047F0BCA04681
:1044F000A946B246BB46704748404140484018B4C0
:104500001B4B5B68FC46019308BD04DFA3550010FC
:1045100018B4174B1B68FC46019308BD00DFAD556E
:1045200000109446134A926F920809D2624618B45A
:104530000F4BDB68FC46019308BD0CDF655800108B
:104540000C4AF0B5146E556E576F166F6246FFF742
:10455000EEFF084A1466556657671667F0BD18B433
:10456000034B9B68FC46019308BD08DF0957001008
:10457000FC2A0020000000D0FFB5504042405040CF
:1045800059404B40594000E0FFB5154F4C00640DB9
:1045900003D0BC4204D10C0314D80020090D090536
:1045A0005C00640D03D0BC4204D11C030AD8002275
:1045B0001B0D1B0501264B4009D44B4003D58B42F4
:1045C00000D18242FFBD9942FCD19042FFBD0B4316
:1045D000DB1803431343F5D0C9434918FFBD00005E
:1045E000FF07000000B5FFF7CFFF01D0002000BD9E
:1045F000012000BD00B5FFF7C7FF804100BDC046E8
:1046000000B5FFF7C1FF01D9002000BD012000BDAA
:1046100000B5FFF7B1FF01D9002000BD012000BDAA
:1046200000B5FFF7A9FF804100BD012040054A0009
:10463000121804D85A00121801D80020704701201F
:1046400070470020704700000021002805D1704706
:10465000C1174840401AFAD0C90713B5064B1B686A
:1046600098470CBC441CA2401005120B0349091BBF
:1046700009051943114310BDB82A00201F0400008A
:1046800010B54C00620D8023D218DB00D21A5B05F6
:104690007E2A10DD9E3A13DACC1709034908194324
:1046A0005242D140640001341532202A05DAD0404C
:1046B0000843604310BD002010BD0846604310BD94
:1046C000C80FC018013810BD18B4044B5B6AFC4613
:1046D000019308BD24DF415C00100000FC2A00208B
:1046E00018B4044B1B6EFC46019308BD60DFF35CFD
:1046F00000100000FC2A002018B4044B9B69FC4603
:10470000019308BD18DF315A00100000FC2A002078
:10471000024A034B00B500F023FF00BD182D44549E
:10472000FB2119408A0002D3920D092A08DA18B435
:10473000064BDB6BFC46019308BD3CDF275E001097
:1047400000B5FFF7E5FF04BC9646F0E7FC2A002021
:104750008A0002D3920D092A08DA18B4064B1B6CA2
:10476000FC46019308BD40DF375E001000B5FFF73F
:10477000CFFF04BC9646F0E7FC2A002018B4044B97
:10478000DB6CFC46019308BD4CDF39610010000072
:10479000FC2A002018B4044B1B6DFC46019308BD95
:1047A00050DFD56100100000FC2A0020132370B5F3
:1047B0001D78012D15D010DD2748FFF703FC274C8D
:1047C00001008022200001F01BFF022D06D02448AA
:1047D000FFF7F0FB234B186070BD204C224AA26407
:1047E000F5E72E001D4C204AA3085B421E401D42E7
:1047F0002FD0330022602020B1006118801B0A6096
:104800004A608A60CA600A614A618A61CA610A6252
:104810004A628A62CA620A634A638A63CA630A6432
:104820004A648A64CA640A654A658A65CA650A6612
:104830004A668A66CA660A674A674008102803D132
:104840008A67CA67A264C2E71E339B00E250A26473
:10485000BDE70023CFE7C04653440000FC2A0020F8
:104860004C330000B82A00207155001070B50400C8
:104870000D001600012A0ED0D20F92195210FFF728
:10488000F5FF0B000200FFF76AFEF30703D52200D5
:104890002B00FFF764FE70BDF0B546464F46D64686
:1048A000C0B54E001D00730D99468C4B14004B444F
:1048B00098464B4688B0002B30D0894B99452DD077
:1048C0004B460022874FFF1A3B0580185941FFF7DE
:1048D00061FF854A854BFFF724FE0022844B0600CA
:1048E0000F00FFF79DFE002826D14346002B31D054
:1048F0000022200029007F4BFFF78AFE002832D1DA
:104900000022200029007C4BFFF77AFE002835D0DA
:1049100043460020002B2ADB002129E0FFF73AFF65
:10492000714A724BFFF7FDFD0022714B06000F002C
:10493000FFF776FE0028DBD0300039006F4B0022F5
:10494000FFF7DDFD6E4B06004B44984643460F00D3
:10495000002BCDD122002B0030003900FFF7FFFDE6
:1049600000F0D8FA04E043460020002BD4DB654970
:1049700008B01CBC90469946A246F0BD2000290014
:1049800000F030FA0B000200290020000492059389
:10499000FFF7B5FD1A220290039100F0FBF900F039
:1049A00021FA0B000200009201934B0004000D005D
:1049B0005B0D0BD04A4A934208D000221A2B00DC30
:1049C00081E0514B12196B410092019304980599B3
:1049D000FFF756FE82464046FFF73AFE009A019BDB
:1049E00004900591FFF7BBFD04000D0000F0FAF9FB
:1049F0000A0001001300069107920200290020001E
:104A0000FFF77DFD009A019B04000D0002980399B9
:104A1000FFF775FD049A059BFFF7A1FD22002B000F
:104A2000FFF776FD009001915046FFF711FE32002E
:104A30003B00FFF794FD04000D0000F0D3F90A00DD
:104A40000100130004910592020029002000FFF7E5
:104A500056FD009A019BFFF75BFD04000D000298D4
:104A6000039932003B00FFF77AFD22002B00FFF78D
:104A70004FFD00F04FFA4E0004000D00760D00D1FE
:104A800076E7174B9E4200D172E706980799534686
:104A900047465F43FFF7F4FDC71904980599FFF7F0
:104AA000EFFDC0198319002B09DD184A93420DDD73
:104AB000144AEB0FDB071A430020110058E7EB0FF5
:104AC0000020D90754E7C90FCB077DE70022030573
:104AD00012196B41100019004AE7C04601FCFFFFA4
:104AE000FF070000FF030000EF39FAFE422EE63F09
:104AF0000000E03F0000B0400000B0C00000F03F08
:104B000002FCFFFF0000F07F000060FEFE070000D7
:104B1000F8B557464E464546DE469246E0B59946BC
:104B200006000F0004000D1E43DA5A00924B2021AC
:104B30009C463423520D62449B1A49425E1800D5AC
:104B4000ECE01F31B1400120404298405746874376
:104B500038004F468F43002E00DAD7E04946F14037
:104B600001263140002A1DDB002B4FDB384358D192
:104B7000002905D006E080221206AA18151E16DAB2
:104B8000342BF8D1802636064B4620005246A91910
:104B9000FFF7BEFF8B1919003CBC90469946A24610
:104BA000AB46F8BD80231B06EB181D1EFADB260062
:104BB0002F0050464946FFF763FD6B008346804651
:104BC0005B0D39D06D4A934236D02A03120B144341
:104BD00032D16B4A904200DAB3E080221201904257
:104BE00000DBB0E0644A944663444343654A9A1844
:104BF000002A00DCA9E0644900208A4200DDADE023
:104C000000221905614B80185941C5E780231B0616
:104C1000EB181D1ECBDA80231B06EB181D1EF5DBDF
:104C2000C5E780231B06EB181D1EC0DA80231B0678
:104C3000EB181D1EF5DBBAE75B46002B77D020335F
:104C4000402B77D85B46002B0ADA3B00320000206D
:104C50004E49FFF766FC5B465B4206000F00984634
:104C60004346012B77D05C10012C71D09D10012D93
:104C700076D0DB109946012B75D043461B119A461E
:104C8000012B73D043465B11012B72D00022300000
:104C90003900FFF7EBFD02000B00FFF760FC0B0093
:104CA0000200FFF75CFC5346DB0703D532003B00F4
:104CB000FFF755FC0B000200FFF751FC4B46DB07EA
:104CC00003D532003B00FFF74AFC0B000200FFF760
:104CD00046FCEB0703D532003B00FFF740FC0B001E
:104CE0000200FFF73CFCE30703D532003B00FFF76F
:104CF00036FC0B000200FFF732FC4346DB0700D412
:104D00004AE732003B00FFF72AFC45E720214E46E8
:104D1000C91A8E405146D940314321E70121202054
:104D200049420F00C01AC740994039430BE70020A1
:104D3000164931E752464B4630003900FFF7ACFDCB
:104D40002AE7100049E70D484CE70020002123E73F
:104D500030003900CDE7300039001DE70C491BE772
:104D600030003900BBE730003900AEE730003900D1
:104D7000A0E73000390092E701FCFFFFFF070000C9
:104D800000F8FFFFFF030000FE0700000000F03FF7
:104D90000000F07F4B0030B55B0D10D00E4CA342ED
:104DA0000DD0D318002B0BDD0C4CA3420EDD0C48AC
:104DB000C90FC9070843050000242900200030BDA1
:104DC0000024C90FCD0720002900F8E700241505AD
:104DD00024184D41F7E7C046FF070000FE0700001A
:104DE0000000F07F254A4B0094465B0D6344F0B50C
:104DF0005A1C24DB5A1C3AD03422D21A002A1DDD58
:104E00003324E41A20235B42E5181ED40126AE4069
:104E100033000126A640320012184B41002D20DB42
:104E20000226AE4031000225A540280016000025CC
:104E300044428D4126402B4030001900F0BD002235
:104E4000C90FCB0710001900F8E720260127361BF1
:104E5000F7400126A6403B00320012184B41002DBE
:104E6000DEDA202502262D1BEE403100DBE7CB0FDA
:104E7000034ADB071A4300201100DFE701FCFFFFB4
:104E80000000F03FF0B5C6464B0004000D0000B531
:104E90005B0D2DD01D4A9B1825D43426F31A984655
:104EA000002B1DDD202342465B42D71828D4333E19
:104EB000BE40330001274646B7403A00002906DAD3
:104EC00001246442E51724184D41A4185D410027D0
:104ED00056429F412300334018002B003B401900ED
:104EE00004BC9046F0BD0020002907DA0849F7E726
:104EF0000022C90FCB0710001900F1E70021EFE7EE
:104F000020270126BF1AFE403300D3E701FCFFFF34
:104F10000000F0BF264B70B50A0D05000C009A4248
:104F20003AD00022234BFFF76BFB002834D100223C
:104F300028002100204BFFF76BFB002802D0002047
:104F40001E4970BD28002100FFF74CFFFFF798FBBA
:104F50000600FFF77DFB02000B0028002100FFF791
:104F6000CEFA174B174AFFF7FAFAFFF707FC4B0088
:104F700004000D005B0DE4D0134A9342E1D0F31816
:104F8000002B0CDD114A93420DDDCB0F0B4ADB07E2
:104F90001A4300201100D4E700200021D1E7CB0FF5
:104FA0000020D907CDE70020310500196941C8E785
:104FB000FF0F00000000B0C00000B0400000F07F14
:104FC000422EE63FEF39FAFEFF070000FE07000021
:104FD000F0B54F464646D646C0B517001E00002223
:104FE000B44B05000C00FFF7FDFA002839D1330D52
:104FF00099465B055A0D9046002B39D000222800B7
:105000002100AD4BFFF7EEFA002834D0AB4B9845AA
:105010002ED0994567D0AA4B994558D04346A94A06
:105020009B1860D4A4483422D31A9C46002B10DD70
:10503000543A991800D5E8E01F328A4001216346AE
:10504000494299403B008B43310091430B4300D0D0
:10505000EDE0280021003A003300FFF759FD05007C
:105060000C00280021001CBC90469946A246F0BDC9
:105070000025904CF5E7220D53052000590D002B1B
:1050800028D143468F4A002E30DB9B181FD4342191
:10509000C91A1CD420235B425B189C4653D40123BD
:1050A00062465B429340012252428A40380090435C
:1050B0000200300098430300134308D13429D0D0B4
:1050C0006346002B00DA90E0DE40F307C9D40025E8
:1050D0000024C6E7794B9A469A423DD10025002E1E
:1050E000F6DB794CBDE70025774CBAE79B18FAD47C
:1050F0003422D31AF7D4543A98181BD41F32824062
:105100000121494299403D008D43290035009543D6
:105110002A000A43E7D1342B04D000286DDBC640B7
:10512000F307E0D500226849E40FE40721431500A6
:105130000C0096E70122202152421500C91ACD40E9
:105140009A402A43DCE7012320225B421800521ACE
:10515000D0408B400343A6E7594B9A4200D099E0D8
:105160004346584A002E1EDB9B18BCD43422D31A67
:10517000B9D4543A98186FD41F3282400121494261
:1051800099403C008C4321003400944322000A43A0
:10519000A9D1342B79D000286FDBC6400025F30756
:1051A0009FD54A4C5DE79B1891D43422D31A8ED4F4
:1051B000543A981847D41F328240012149429940FD
:1051C0003C008C4321003400944322000A4300D069
:1051D0007DE7342B5CD0002847DBC6400025F30771
:1051E00000D475E7802424063BE720235B1A9E4009
:1051F00033003E00CE401E4367E72022D21A96407D
:1052000032003E00DE4016438AE70122202152424E
:10521000C91A1300CB40190063469A400A430DE7B0
:10522000994540D04346274A9B1800D4FBE6002806
:1052300000DA58E7280021003A003300FFF72CFB82
:1052400005000C000DE70122202152421400C91A6A
:10525000CC409A402243B0E7012220215242140060
:10526000C91ACC409A40224388E72022D21A96409D
:1052700032003E00DE401643B0E72022D21A9640AC
:1052800032003E00DE40164388E700250F4CE8E67A
:105290000025A7E7D145C3D10D4B0025994200DD7C
:1052A0001FE70024DDE60025094B2C00994200DDB4
:1052B000D7E616E70000F03F0000F0BFFF07000050
:1052C000FF0F000001FCFFFF0000F07F0000F0FF77
:1052D000FE030000F0B557464E464546DE46E0B5B3
:1052E00087B002925A009A46530D9946109B4D0082
:1052F00004006D0D002B01D000221A60954A9542E2
:1053000000D1AFE04B46002B00D1ABE0002D00D127
:10531000ABE0914500D19DE0013B0393AB4200DD42
:1053200098E0CB0F0E039846330B9B4680235B031C
:105330009C465B46624613431F0053460600180313
:105340006346000B0343029A0193039B0092AB4216
:1053500056D04346002B00D1BBE033003C00002771
:105360005E42A7414B46ED1A002D00DCC7E001204C
:10537000019B40421911FEF773FE002398464B46ED
:1053800003935346AB46029004931BE032009A40CD
:1053900015003300524693401C004B464846D9172F
:1053A000009A019B00F0FCFF4346524693404B4459
:1053B00098465B4626002F009B1A361A8F419B4663
:1053C000002B55DD5B46DA460C2B01DD0C239A469B
:1053D000029ABB11534351461D22521A13412022F7
:1053E00001335B10524299468B18CFD520233200EF
:1053F0005B1ADA4013003A008A4015001D43C8E7E3
:10540000019B9F4205DC009A019B9F4222D196425C
:1054100020D900980199434600184941002B00D03B
:1054200082E0039B361A8F419946012398465346E2
:10543000002B02DA43465B429846109B002B01D0BA
:1054400042461A604B46444A30003900D21AFFF7F0
:1054500047F90400200007B03CBC90469946A2469C
:10546000AB46F0BD00243D49F4E700240021F1E7FC
:10547000039B9946049B9A46009B019CBC4250DCCE
:105480004CD0009B019CF61AA741BC4259DC55D078
:10549000009B019CF61AA74102239C46E04432007F
:1054A000009801993B0092197B418B4209DC23D083
:1054B00000998A42BBD1019A9342B8D14346DB0797
:1054C000B5D5009B019CF61AA74101239C46E044F8
:1054D000ADE74B46ED1A002D00DD48E7019BBB42CE
:1054E000DDDC009B019CBC4201D1B342D7D8009BBC
:1054F000019CF61AA74124E08242E2D8D8E70023B3
:105500009846009B019CF6186741002F1DDAF6189B
:10551000674102235B429C46E044C0E7009BB342E4
:10552000AFD9002FEDDBBAE7039B801BB941994649
:1055300001235B4206000F00984678E7009BB342C8
:10554000A6D901239C46E044A9E701235B429C467F
:10555000E044A4E7FF070000330400000000F07FF0
:1055600010B5002482B00094FFF7B4FE02B010BD65
:1055700007B5604601880A0A0230DF2AFAD1C9B2AB
:10558000820804D3028840880004104300E00068C9
:10559000014A5050039007BDFC2A00200FB403BC01
:1055A0000CBCF0B50124E407634000E0F0B50C0D3D
:1055B000CF0F661E3605891B640503D3C9434042DD
:1055C00000D30131640D03D0661CF60A07D0E41B3A
:1055D00000207F00791C89078912803C24031D0D5F
:1055E000DF0F6E1E36059B1B6D0503D3DB43524256
:1055F00000D301336D0D03D06E1CF60A07D0ED1BEE
:1056000000227F007B1C9B079B12803D2D032F1BDC
:10561000661B58D4A446202E46DA20371400BC401E
:105620001D00BD40F24033412A4380185941CB0F41
:1056300005D0C943C04300226442504151416246F3
:105640004D0D28D10D0D07D100281FD02419404140
:105650004941013A0D0DF9D0640006D3013000D361
:105660000131002C01D140084000013A0BD4941CB8
:10567000E40A04D112051144DB071944F0BDD9072F
:10568000204B194300E0D9070020F0BD0029DDD1EF
:10569000002CDBD1F0BD0132C6074008CD072843FE
:1056A0004908002EE1D0D9E73C2E29DA203E4037C8
:1056B0001400BC4000D00124F24014431A00BB4047
:1056C0001C43D317ACE7AC46202F08DA2036040081
:1056D000B4400D00B540F84039412843A5E73C2FC0
:1056E0000CDA203F40360400B44000D00124F840DA
:1056F00004430800B1400C43C117EAE71000190049
:10570000002494E70000F07FF0B50C0D661E36050E
:10571000891BE60A6405640D02D0651CED0A04D0FD
:10572000002001210905803C2403A4461C0D671EAE
:105730003F05DB1BE70A6405640D02D0651CED0A1A
:1057400004D0002201231B05803C240377406444DD
:1057500097B484B296B27443070C7E43150C6F4322
:1057600080B26843361802D3012000043F18300489
:10577000350C00197D41844688B29AB250430C0C16
:1057800062431F0C7C438EB27E43921902D30126E2
:105790003604A4191604170C3618674101BC81B2EF
:1057A0009AB25143040C62431B0C5C4380B25843D1
:1057B000121802D30120000424181004130C4018FE
:1057C00063412D185E410020474106BC88B293B268
:1057D00058430C0C6343120C544389B251435B1879
:1057E00002D301210904641819041A0C0918624132
:1057F0006D1856410020474118BCF902720D114343
:10580000F0026A0D1043ED020A0D03D16D194041FB
:105810004941013B124E9B1B7600B3420ED26D00F4
:1058200007D30130002671416646354301D1400857
:1058300040001B05C918E4072144F0BD0BDA013311
:1058400006D1013004D101314F0D01D04908F2E7F2
:10585000E1070020F0BD013631050020EBE7000034
:10586000FF030000F0B51C0D671E3F05DB1BE70AB8
:105870006405640D02D0661CF60A04D000220123E0
:105880001B05803C2403D0252D060026F6432E66FA
:105890001E096E66CE0FF619B44649004F0D02D0B0
:1058A0007E1CF60A03D000200021403F3F033E1B30
:1058B000B600B444013F7F05C91B49082E6F01366D
:1058C00076089C02950D25437543ED137543AD1382
:1058D00001356D10F603761B0CB4CC02450D2C433C
:1058E000A2B2B3B25A43270C7B43350C6F43A4B228
:1058F0006C431B1902D3012424043F191C041D0C02
:10590000A4187D4124196D41009A91B2ACB2614353
:10591000170C7C432B0C5F4392B25A43A41802D35A
:1059200001221204BF182204230C52187B41019C4F
:105930006C431B19520ED9010A434401A01A81B2CB
:10594000B2B2514303145A43360C734387B27743C0
:10595000D617D21900277E4136049B191704160C5E
:105960007F185E417316ED18F301002680337541F0
:10597000A90F06D16400690AE8055B0A184309D239
:105980002FE00422944480337541A90AA8059B0A9C
:10599000184326D3404149412404009A019B0D003D
:1059A0005543641B4343E41A95B286B27543170C02
:1059B0007E43030C5F4392B25A43B61802D30122CE
:1059C0001204BF183204330C52197B4152429C41DD
:1059D000002C02D40022013051414008CA07104374
:1059E000490802B06246D7079210084BD218084BFC
:1059F0009A4203D212058918C919F0BD0020002A65
:105A000001DC3900F0BD01331905F5E7FD030000A5
:105A1000FE07000007DA002107E0C90FC907520D91
:105A200003D0C91201E04C49090500207047C04667
:105A30004A00F2D2520D013A484B9A42EAD2F0B5EE
:105A40001405091B520801D3001849419B08D218BC
:105A50001205944640A44A0CA25C0B0953435343DD
:105A60001B1353435B131202D21A13005B435B0BED
:105A70004C086343DB135343DB1501335B10D21A2D
:105A8000130CD21A13005B438902840D21438DB29B
:105A90009EB275430F0C7E431B0C5F438CB25C437C
:105AA000361902D3012424043F193404330C641939
:105AB0007B419D01A40E2C432034A5B255432414F0
:105AC00054432D0C6419A411D203121B95B28EB24B
:105AD0007543170C7E430C0C674393B26343F6186F
